:100000000C9463000C948B000C948B000C948B006C
:100010000C948B000C948B000C948B000C948B0034
:100020000C948B000C948B000C948B000C948B0024
:100030000C948B000C948B000C948B000C948B0014
:100040000C94A8090C948B000C94180A0C94F209D7
:100050000C948B000C948B000C948B000C948B00F4
:100060000C948B000C948B000000000024002700EF
:100070002A0000000000250028002B0000000000DE
:1000800023002600290004040404040404040202DA
:100090000202020203030303030301020408102007
:1000A0004080010204081020010204081020000012
:1000B0000008000201000003040700000000000027
:1000C00000004A0AA21011241FBECFEFD8E0DEBF05
:1000D000CDBF25E0AAEBB4E001C01D92A13FB2075D
:1000E000E1F714E0A0E0B1E0EEEFFAE202C0059023
:1000F0000D92AA3BB107D9F710E0C2E6D0E004C0E8
:100100002197FE010E947A13C136D107C9F70E94D8
:10011000EE0A0C9472150C940000833081F028F4E0
:10012000813099F08230A9F008958730A9F08830A5
:10013000C9F08430B1F4809180008F7D03C080913C
:1001400080008F7780938000089584B58F7784BD79
:10015000089584B58F7DFBCF8091B0008F77809319
:10016000B00008958091B0008F7DF9CFCF93DF93D9
:10017000282F30E0F901E255FF4F8491F901E6564E
:10018000FF4FD491F901EA57FF4FC491CC23A1F05E
:1001900081110E948D00EC2FF0E0EE0FFF1FE4585C
:1001A000FF4FA591B491EC91ED2381E090E009F42B
:1001B00080E0DF91CF91089580E090E0FACF1F9327
:1001C000CF93DF93282F30E0F901E255FF4F849160
:1001D000F901E656FF4FD491F901EA57FF4FC49158
:1001E000CC23A9F0162F81110E948D00EC2FF0E096
:1001F000EE0FFF1FEE58FF4FA591B4918FB7F89403
:10020000EC91111108C0D095DE23DC938FBFDF91F4
:10021000CF911F910895DE2BF8CFCF93DF9390E01D
:10022000FC01E656FF4F24918A579F4FFC018491B1
:100230008823C9F090E0880F991FFC01E859FF4F0F
:10024000A591B491FC01EE58FF4FC591D491611175
:100250000DC09FB7F8948C91209582238C93888150
:10026000282328839FBFDF91CF910895623051F4F6
:100270009FB7F8943C91822F809583238C93E881DB
:100280002E2BEFCF8FB7F894EC912E2B2C938FBFA2
:10029000EACF3FB7F8948091E5049091E604A091ED
:1002A000E704B091E80426B5A89B05C02F3F19F0DC
:1002B0000196A11DB11D3FBFBA2FA92F982F8827E6
:1002C000BC01CD01620F711D811D911D42E0660FC1
:1002D000771F881F991F4A95D1F708958F929F9293
:1002E000AF92BF92CF92DF92EF92FF926B017C01AF
:1002F0000E9449014B015C01C114D104E104F104E5
:10030000B9F00E944901681979098A099B09683E78
:1003100073408105910580F321E0C21AD108E108FC
:10032000F10888EE880E83E0981EA11CB11CE4CF72
:10033000FF90EF90DF90CF90BF90AF909F908F9005
:1003400008952FB7F8946091E1047091E2048091D0
:10035000E3049091E4042FBF0895AF92BF92CF922F
:10036000DF92EF92FF920F931F93CF93DF936C0175
:100370007B018B01040F151FEB015E01AE18BF0856
:10038000C017D10759F06991D601ED91FC91019008
:10039000F081E02DC6010995892B79F7C501DF9120
:1003A000CF911F910F91FF90EF90DF90CF90BF9072
:1003B000AF900895FC01538D448D252F30E0842F9C
:1003C00090E0821B930B541710F0CF96089501977D
:1003D0000895FC01918D828D981761F0A28DAE0F6A
:1003E000BF2FB11D5D968C91928D9F5F9F73928FF1
:1003F00090E008958FEF9FEF0895FC01918D828D1D
:10040000981731F0828DE80FF11D858D90E00895E9
:100410008FEF9FEF0895FC01918D228D892F90E041
:10042000805C9F4F821B91098F739927089589EEF5
:1004300094E00E940B0221E0892B09F420E0822F36
:10044000089580E090E0892B29F00E941702811125
:100450000C9400000895FC01A48DA80FB92FB11DC4
:10046000A35ABF4F2C91848D90E001968F739927EA
:10047000848FA689B7892C93A089B1898C918370C8
:1004800080648C93938D848D981306C00288F389C1
:10049000E02D80818F7D80830895EF92FF920F93EE
:1004A0001F93CF93DF93EC0181E0888F9B8D8C8D20
:1004B00098131AC0E889F989808185FF15C09FB714
:1004C000F894EE89FF896083E889F98980818370D7
:1004D000806480839FBF81E090E0DF91CF911F9186
:1004E0000F91FF90EF900895F62E0B8D10E00F5FA7
:1004F0001F4F0F731127E02E8C8D8E110CC00FB67D
:1005000007FCFACFE889F989808185FFF5CFCE0114
:100510000E942B02F1CFEB8DEC0FFD2FF11DE35A62
:10052000FF4FF0829FB7F8940B8FEA89FB89808197
:100530008062CFCFCF93DF93EC01888D8823B9F011
:10054000AA89BB89E889F9898C9185FD03C08081DE
:1005500086FD0DC00FB607FCF7CF8C9185FFF2CF5B
:10056000808185FFEDCFCE010E942B02E9CFDF9184
:10057000CF9108950895089590E080E00895FF9246
:100580000F931F93CF93DF93F82E062FC7E0D0E091
:1005900010E061E0802F0E94DF008F2D0E94B600E6
:1005A0000C2E01C0880F0A94EAF7182B60E0802F08
:1005B0000E94DF00219768F7812FDF91CF911F9173
:1005C0000F91FF900895EF92FF920F931F93CF9397
:1005D000DF938091CB050E94B600892B31F060E05B
:1005E00070E0CB010E946E01F4CFDFB7F894609108
:1005F000CA058091CB050E94BF02082F6091CA05F1
:100600008091CB050E94BF02C82F6091CA058091DE
:10061000CB050E94BF02182FF12CE12C8091CC0554
:100620008E151F0479F070F061E08091CA050E9478
:10063000DF0060E08091CA050E94DF008FEFE81ABA
:10064000F80AECCFDFBF6C2F70E090E080E0982FCD
:10065000872F762F6627802B612B000F000B10E071
:1006600030E020E0302F222711270027602B712B4C
:10067000822B932BDF91CF911F910F91FF90EF90E1
:100680000895CF93DF93EC0160E08E810E94DF003C
:1006900061E08E810E94DF0060E08E810E94DF00B9
:1006A0008BE891E00197F1F7DF91CF910895CF9218
:1006B000DF92EF92FF920F931F93CF93DF936C0122
:1006C0007C0187E0E80EF11CD0E0C0E0062F10E0CE
:1006D000B8010C2E02C0759567950A94E2F7617017
:1006E000F70181917F010E94DF002196C430D1057E
:1006F00079F7C601DF91CF911F910F91FF90EF9095
:10070000DF90CF900C944103CF92DF92EF92FF9253
:100710000F931F93CF93DF93EC01F62E642F8C8100
:100720000E94DF008D818F3F19F060E00E94DF00A2
:100730000F2D10E08F8584FF25C06E0187E0C80E65
:10074000D11CF12CE12CB8010E2C02C075956795D7
:100750000A94E2F76170F60181916F010E94DF0057
:10076000FFEFEF1AFF0A88E0E816F10461F7CE0107
:10077000DF91CF911F910F91FF90EF90DF90CF907D
:100780000C944103B80184E0759567958A95E1F76B
:10079000CE010E9457036F2DCE01DF91CF911F91A3
:1007A0000F91FF90EF90DF90CF900C94570340E0B3
:1007B000682F85ED95E00C94840381E00E94D703B7
:1007C0008BE39FE10197F1F708959091E805891770
:1007D00010F08FEF890FE82FF0E0EB52FA4F848989
:1007E00080680C94D703CF93DF93823029F49091E3
:1007F000E40598609093E4058093E8051092E9057C
:1008000080E48093EA0580E18093EB0580E58093A6
:10081000EC0561E08091D9050E940D018091DA0517
:100820008F3F19F061E00E940D0161E08091DB05CE
:100830000E940D01C5EDD5E09E01255D35408091FA
:10084000E40584FD0BC084E090E021962817390769
:1008500044F461E08E810E940D01EECF88E090E0CB
:10086000F4CF8BE39DE00197F1F760E08091D9052B
:100870000E94DF0060E08091DB050E94DF00809134
:10088000DA058F3F19F060E00E94DF008091E405F7
:1008900084FD34C063E085ED95E00E945703CBE40E
:1008A000D6E4CE010197F1F763E085ED95E00E9473
:1008B00057032197F1F763E085ED95E00E94570318
:1008C00083E592E00197F1F762E085ED95E00E9403
:1008D00057038091E40580620E94D70384E08093EF
:1008E000E5058CE00E94D7030E94DD0382E080933F
:1008F000E60586E0DF91CF910C94D70380620E94D9
:10090000D7038BE496E40197F1F78091E4058062C8
:100910000E94D70383E592E00197F1F78091E40507
:1009200080620E94D703D5CF41E00E94840381E01A
:1009300090E00895FB0101900020E9F73197AF01A5
:10094000461B570BDC01ED91FC910280F381E02DF9
:1009500009946FE271E089EE94E00C949A04CF93CD
:10096000DF93FC01448155816081718189EE94E0BF
:100970000E94AD01EC010E94A9048C0F9D1FDF9124
:10098000CF9108958F929F92AF92BF92EF92FF9274
:100990000F931F93CF93DF93CDB7DEB7A1970FB619
:1009A000F894DEBF0FBECDBF7C01FA01CB0119A2C6
:1009B000223008F42AE08E010F5D1F4F822E912C09
:1009C000B12CA12CBF01A50194010E945813F9017B
:1009D000CA016A300CF5605DD8016E938D01232B3E
:1009E000242B252B79F790E080E0109721F0BD01B2
:1009F000C7010E949A04A1960FB6F894DEBF0FBEFD
:100A0000CDBFDF91CF911F910F91FF90EF90BF90DD
:100A1000AF909F908F900895695CDECFCF92DF9268
:100A2000EF92FF920F931F93CF93DF9377FF21C035
:100A30006A017B01EC01E881F9810190F081E02DF0
:100A40006DE209958C0144275527BA014C195D09BF
:100A50006E097F092AE0CE010E94C204800F911F17
:100A6000DF91CF911F910F91FF90EF90DF90CF908A
:100A700008952AE0DF91CF911F910F91FF90EF90A1
:100A8000DF90CF900C94C204CF93DF93AC01990F09
:100A9000660B770B89EE94E00E940E05EC010E9434
:100AA000A9048C0F9D1FDF91CF910895462F50E030
:100AB00070E060E02AE00C94C204CF93DF93BC01A5
:100AC00089EE94E00E949A04EC010E94A9048C0F24
:100AD0009D1FDF91CF9108954F925F926F927F9209
:100AE0008F929F92AF92BF92CF92DF92EF92FF923E
:100AF0006B017C01AC019B010E94531362E371E026
:100B0000811126C046015701E894B7F82FEF3FEF57
:100B10004FE75FE7C501B4010E94531381110CC078
:100B20002FEF3FEF4FE75FE7C501B4010E94DE10F2
:100B300066E371E0181664F02FEF3FEF4FE75FE4D4
:100B4000C701B6010E944E13181694F46AE371E0CF
:100B500089EE94E0FF90EF90DF90CF90BF90AF9040
:100B60009F908F907F906F905F904F900C949A041D
:100B70002FEF3FEF4FE75FECC701B6010E94DE1099
:100B800087FDE4CF20E030E0A901C701B6010E9453
:100B9000DE10B12CA12C87FF0AC06DE289EE94E033
:100BA0000E944D025C01F7FAF094F7F8F0942AE005
:100BB00037ED43EA5BE3C701B6010E943A122B010D
:100BC0003C010E941F136B017C010E94E3109B01FA
:100BD000AC01C301B2010E9439122B013C012AE091
:100BE000B701A60189EE94E00E94C2047C01EA0CE0
:100BF000FB1C6EE289EE94E00E944D02E80EF91EA5
:100C000020E030E040E251E4C301B2010E9444110F
:100C10002B013C010E941F134B01B12CA12C2AE097
:100C2000B501A40189EE94E00E94C204E80EF91E09
:100C3000C501B4010E94E3109B01AC01C301B201E4
:100C40000E94391220E030E040E251E40E94441159
:100C50000E941F13AB0170E060E02AE089EE94E08F
:100C60000E94C2048E0D9F1DFF90EF90DF90CF90E9
:100C7000BF90AF909F908F907F906F905F904F90BC
:100C800008950C949A04CF93DF93EC0160910201D4
:100C900089EE94E00E94560567E771E089EE94E0E2
:100CA0000E944106809101018A3030F46EE371E0C8
:100CB00089EE94E00E9441066091010189EE94E082
:100CC0000E94560567E771E089EE94E00E944106B4
:100CD000809100018A3030F46EE371E089EE94E097
:100CE0000E9441066091000189EE94E00E94560541
:100CF0006FE671E089EE94E00E944106CE01DF913B
:100D0000CF910C94AF048091DE048823A1F00E945F
:100D1000DD0380E00E94E5036EE471E085ED95E07F
:100D20000E94410681E00E94E5036EE873E085EDD4
:100D300095E00C9441068091DD04882389F00E949F
:100D4000DD0380E00E94E50360E471E085ED95E05D
:100D50000E94410681E00E94E50366E774E0E7CF68
:100D60008091DF04882389F00E94DD0380E00E94E7
:100D7000E50369E471E085ED95E00E94410681E0BC
:100D80000E94E50367E571E0D2CF80E00E94E503B1
:100D900061E671E085ED95E00E94410680E00E94E9
:100DA000E503809102018A3030F46EE371E085ED55
:100DB00095E00E9441066091020185ED95E00E9458
:100DC000560567E771E085ED95E00E944106809148
:100DD00001018A3030F46EE371E085ED95E00E9408
:100DE00041066091010185ED95E00E94560567E797
:100DF00071E085ED95E00E944106809100018A3006
:100E000030F46EE371E085ED95E00E94410660915B
:100E1000000185ED95E00E94560581E00E94E50302
:100E200061E671E085ED95E00E94410681E00E9457
:100E3000E50362E771E085ED95E00E94410640918F
:100E4000D6045091D704052E000C660B770B85ED68
:100E500095E00E940E056FE671E069CFCF93DF93B6
:100E60000E94A90489E791E00E945D056CE971E0A8
:100E700089EE94E00E94410690E080E00E944405E3
:100E80006FEA71E089EE94E00E9441068091C80407
:100E90009091C9040E94440562EC71E089EE94E0EF
:100EA0000E9441068091C4049091C5040E944405AB
:100EB00065ED71E089EE94E00E9441068091C204E4
:100EC0009091C3040E94440568EE71E089EE94E0BD
:100ED0000E9441068091C0049091C1040E94440583
:100EE0006BEF71E089EE94E00E9441068091D60498
:100EF0009091D7040E944405C091C804D091C904C0
:100F00008091C4049091C504C80FD91F8091C20478
:100F10009091C304C80FD91F8091C0049091C1045F
:100F2000C80FD91F6DE072E089EE94E00E9441067F
:100F30008FE192E01C161D064CF440E050E0BA012F
:100F400089EE94E00E940E0580E292E00E945D0529
:100F500082E292E0DF91CF910C945D05CF92DF9217
:100F6000EF92FF92CF93DF930E94A90485E492E071
:100F70000E945D05C6E8D5E0C12CD12C7601C601E2
:100F80002FEFC21AD20AE20AF20A2091BA04309173
:100F9000BB04821793078CF4B701A60189EE94E095
:100FA0000E940E0564E672E089EE94E00E9441061C
:100FB000CE010E94AF042696E2CF86E292E0DF9156
:100FC000CF91FF90EF90DF90CF900C945D050F9341
:100FD0001F93CF93DF93EC0188819981009759F09B
:100FE0002A813B812617370730F081E0DF91CF91CE
:100FF0001F910F9108958B016F5F7F4F0E94A51481
:10100000009759F0998388831B830A832C813D8143
:10101000232B59F7FC011082E8CF80E0E7CFEF9255
:10102000FF920F931F93CF93DF936115710541F4E6
:1010300080E0DF91CF911F910F91FF90EF90089585
:1010400041155105B1F07B01EC010C811D81040FAC
:10105000151FB8010E94E707882351F328813981C1
:101060008C819D81B701820F931F0E946B151D8398
:101070000C8381E0DECFFB0101900020E9F731977E
:10108000AF01461B570B0C940F08CF93DF93EC0175
:1010900088819981009711F00E941C14198218828E
:1010A0001D821C821B821A82DF91CF910895EF92DC
:1010B000FF920F931F93CF93DF93EC017B018A0183
:1010C000BA010E94E70781110BC0CE010E944508BA
:1010D000CE01DF91CF911F910F91FF90EF90089576
:1010E0001D830C83B701888199810E946B15F0CF15
:1010F000EF92FF920F931F93CF93DF93CDB7DEB79D
:1011000029970FB6F894DEBF0FBECDBF8C01862F96
:10111000F8011182108213821282158214824AE031
:101120009E012F5F3F4F7901B90190E00E94B410FA
:10113000F70101900020E9F73197AF014E195F09DF
:10114000B701C8010E94570829960FB6F894DEBF70
:101150000FBECDBFDF91CF911F910F91FF90EF9008
:101160000895FC011182108213821282158214826A
:10117000FB0101900020E9F73197AF01461B570BA7
:101180000C945708FC0180819181009711F00C9418
:101190001C140895FF920F931F93CF93DF93CDB745
:1011A000DEB72C970FB6F894DEBF0FBECDBF8C0113
:1011B00061E371E0CE0107960E94B108F090020150
:1011C00089E08F1530F06EE371E0CE0107960E9442
:1011D0003B086F2DCE0101960E9478084D815E81FB
:1011E00069817A81CE0107960E940F08CE0101968F
:1011F0000E94C20867E771E0CE0107960E943B0893
:10120000F0900101E9E0EF1530F06EE371E0CE01FE
:1012100007960E943B086F2DCE0101960E94780828
:101220004D815E8169817A81CE0107960E940F0807
:10123000CE0101960E94C20867E771E0CE010796D1
:101240000E943B08F0900001F9E0FF1530F06EE3DA
:1012500071E0CE0107960E943B086F2DCE010196EA
:101260000E9478084D815E8169817A81CE0107965E
:101270000E940F08CE0101960E94C2081A821982AC
:101280001C821B821E821D826F817885611571050B
:1012900031F04B855C85CE0101960E94570843E0F2
:1012A00050E067E672E0CE0101960E940F088111BE
:1012B00004C0CE0101960E944508F8014481558181
:1012C00060817181CE0101960E940F08811104C0D6
:1012D000CE0101960E9445080091BA041091BB040A
:1012E00026E0209FC001219F900D11248A579A4F1C
:1012F00069817A816115710509F14D815E810E94D4
:101300005708CE0101960E94C2080F5F1F4F0A3096
:101310001105BCF41093BB040093BA04CE010796E8
:101320000E94C2082C960FB6F894DEBF0FBECDBF48
:10133000DF91CF911F910F91FF9008950E94450872
:10134000E0CF1092BB041092BA04E8CF0C941C14A6
:101350001F920F920FB60F9211242F933F938F93EA
:101360009F93AF93BF938091E1049091E204A09189
:10137000E304B091E4043091E00423E0230F2D371F
:1013800058F50196A11DB11D2093E0048093E1045E
:101390009093E204A093E304B093E4048091E50405
:1013A0009091E604A091E704B091E8040196A11D94
:1013B000B11D8093E5049093E604A093E704B093F5
:1013C000E804BF91AF919F918F913F912F910F9022
:1013D0000FBE0F901F90189526E8230F0296A11DAF
:1013E000B11DD2CF1F920F920FB60F9211242F93DF
:1013F0003F934F935F936F937F938F939F93AF939D
:10140000BF93EF93FF9389EE94E00E942B02FF912C
:10141000EF91BF91AF919F918F917F916F915F916C
:101420004F913F912F910F900FBE0F901F901895E5
:101430001F920F920FB60F9211242F938F939F93A9
:10144000EF93FF93E091F904F091FA048081E09129
:10145000FF04F091000582FD1BC090818091020580
:101460008F5F8F7320910305821741F0E091020591
:10147000F0E0E751FB4F958F80930205FF91EF91CC
:101480009F918F912F910F900FBE0F901F901895E5
:101490008081F4CF0F931F93CF93DF931092EC04CE
:1014A0001092EB0488EE93E0A0E0B0E08093ED04AE
:1014B0009093EE04A093EF04B093F0048DE091E0DC
:1014C0009093EA048093E90485EC90E09093F6040D
:1014D0008093F50484EC90E09093F8048093F704F3
:1014E00080EC90E09093FA048093F90481EC90E012
:1014F0009093FC048093FB0482EC90E09093FE04B4
:101500008093FD0486EC90E0909300058093FF04A7
:101510001092020510920305109204051092050521
:101520001092D8051092D70587E291E09093D605E6
:101530008093D5058CE08093D9058FEF8093DA05F1
:101540008BE08093DB0584E08093DC0583E080936F
:10155000DD0582E08093DE058EE08093DF0510924A
:10156000E0051092E1051092E2051092E305109259
:10157000E40581E00E94F3038FE191E09093C905B7
:101580008093C8051092CD051092CE051092CF051C
:101590001092D00580E090E0A0E8BFE38093D105F1
:1015A0009093D205A093D305B093D40561E371E085
:1015B00082EC95E00E94B108C6E8D5E002EC15E0A7
:1015C00061E371E0CE010E94B10826960C171D0759
:1015D000B9F7DF91CF911F910F910895CF93DF93CA
:1015E00000D000D000D0CDB7DEB7789484B582604B
:1015F00084BD84B5816084BD85B5826085BD85B5B7
:10160000816085BD80916E00816080936E00109234
:1016100081008091810082608093810080918100AF
:101620008160809381008091800081608093800040
:101630008091B10084608093B1008091B00081609E
:101640008093B00080917A00846080937A008091CA
:101650007A00826080937A0080917A008160809322
:101660007A0080917A00806880937A001092C1009D
:10167000E091F904F091FA0482E08083E091F504AE
:10168000F091F6041082E091F704F091F8048FECE9
:10169000808310920105E091FD04F091FE0486E044
:1016A0008083E091FB04F091FC0480818061808361
:1016B000E091FB04F091FC04808188608083E091DC
:1016C000FB04F091FC04808180688083E091FB043E
:1016D000F091FC0480818F7D808382E00E94F3037F
:1016E00088E08093CA0587E08093CB0561E088E0BD
:1016F0000E940D0160E08091CB050E940D0181E008
:101700008093CC0561E089E00E940D0161E08AE0F0
:101710000E940D0161E081E10E940D0161E08DE018
:101720000E940D0162E085E00E940D0162E086E00A
:101730000E940D0162E08FE00E940D0162E080E1F5
:101740000E940D0160E089E00E94DF0060E08AE015
:101750000E94DF0060E081E10E94DF001092DE0461
:1017600060E08DE00E94DF000E94DD0380E00E94C7
:10177000E5036BE672E085ED95E00E94410681E0AD
:101780000E94E50369E772E085ED95E00E9441065D
:1017900084E292E00E945D0586E892E00E945D0589
:1017A00082EA92E00E945D0584E292E00E945D057B
:1017B00088EB92E00E945D0589ED92E00E945D0554
:1017C00088EB92E00E945D0560ED77E080E090E0BC
:1017D0000E946E010E94DD030E94E30280E0A82EB9
:1017E00080E0B82E04E19CE0992E29E0822E11E0E1
:1017F0000E94A101C090BC04D090BD04E090BE0442
:10180000F090BF046C197D098E099F09683E7340F2
:101810008105910548F10E94A1016093BC04709379
:10182000BD048093BE049093BF04809100018F5F3C
:10183000809300018C3338F08091010110920001F7
:101840008F5F80930101809101018C3338F080918A
:101850000201109201018F5F8093020180910201C9
:10186000883110F0109202010E94E3020E94E510FC
:1018700020E434E549E85AE40E94A61220E030E072
:101880004BE154E40E9444116B017C01C092D904E5
:10189000D092DA04E092DB04F092DC0420E030E045
:1018A00040EA50E40E94A6120E94181377FDDCC1A2
:1018B0007093D7046093D60420E030E0A901C701FB
:1018C000B6010E94DE1087FF08C01092D904109262
:1018D000DA041092DB041092DC0485E00E94B6006A
:1018E000892B09F0C6C18092020110920101109269
:1018F00000016CE271E080E090E00E946E01809156
:101900000201893009F048C080910101811144C071
:1019100080910001811140C08091D50481113CC0AB
:101920001093DF041092DE048091D9049091DA04C0
:10193000A091DB04B091DC048093D1049093D20495
:10194000A093D304B093D4040E94A1016093CD046A
:101950007093CE048093CF049093D00461E089E02B
:101960000E94DF0061E08DE00E94DF000E94A90478
:101970008BEE92E00E945D0563E473E0CE01019678
:101980000E94B108CE0101960E944306CE01019645
:101990000E94C2081093D504809102018C3009F096
:1019A00046C080910101811142C0809100018111E6
:1019B0003EC08091CC0481113AC01093DF04109294
:1019C000DE048091D9049091DA04A091DB04B091F7
:1019D000DC048093D1049093D204A093D304B093F9
:1019E000D4040E94A1016093CD047093CE0480932F
:1019F000CF049093D00461E089E00E94DF0061E0B1
:101A00008DE00E94DF0085E093E00E945D0563E4C5
:101A100073E0CE0101960E94B108CE0101960E94AA
:101A20004306CE0101960E94C2081093CC04809117
:101A30000201803109F046C080910101811142C04C
:101A40008091000181113EC08091CB0481113AC088
:101A50001093DF041092DE048091D9049091DA048F
:101A6000A091DB04B091DC048093D1049093D20464
:101A7000A093D304B093D4040E94A1016093CD0439
:101A80007093CE048093CF049093D00461E089E0FA
:101A90000E94DF0061E08DE00E94DF008FE193E0B3
:101AA0000E945D0563E473E0CE0101960E94B108D7
:101AB000CE0101960E944306CE0101960E94C20803
:101AC0001093CB0480910201843109F046C08091CB
:101AD0000101811142C08091000181113EC08091BD
:101AE000CA0481113AC01093DF041092DE04809181
:101AF000D9049091DA04A091DB04B091DC048093C6
:101B0000D1049093D204A093D304B093D4040E9440
:101B1000A1016093CD047093CE048093CF04909381
:101B2000D00461E089E00E94DF0061E08DE00E9466
:101B3000DF0089E393E00E945D0563E473E0CE017A
:101B400001960E94B108CE0101960E944306CE0183
:101B500001960E94C2081093CA048091DF04882372
:101B600009F439C12091D9043091DA044091DB04A1
:101B70005091DC046091D1047091D2048091D3041F
:101B80009091D4040E9439126B017C0120E030E076
:101B9000A9010E944E1318160CF085C020E030E019
:101BA00040E850E4C701B6010E94DE1087FF7BC009
:101BB0001092DF048091C8049091C904019690931B
:101BC000C9048093C80461E089E00E94DF0061E0FD
:101BD0008DE00E94DF000E94DD0380E00E94E503AB
:101BE0006CE673E085ED95E00E94410681E00E947D
:101BF000E50364E573E085ED95E00E9441066CE63F
:101C000073E0CE0101960E94B108CE0101960E94B8
:101C1000CA08CE0101960E94C2080E94AE070E9427
:101C20002E070E94A90483E693E00E945D0567E702
:101C300073E089EE94E00E944106C701B6010E945C
:101C40006C0582E893E00E945D056CE673E0CE01CE
:101C500001960E94B108CE0101960E944306CE0172
:101C600001960E94C208BDC11092D7041092D604FA
:101C700023CE86E00E94B600892B19F490920201CF
:101C800034CE8FE00E94B600892B21F480E180934E
:101C900002012BCE80E10E94B600892B09F02FCEE5
:101CA0000093020122CE20E030E040E850E4C7017A
:101CB000B6010E944E1387FD45C120E030E040ECA4
:101CC00050E4C701B6010E94DE1018160CF43AC1A8
:101CD0001092DF041093DE048091C6049091C70433
:101CE00001969093C7048093C60465E873E0CE0123
:101CF00001960E94B108CE0101960E94CA08CE0149
:101D000001960E94C2080E94AE070E942E0760E062
:101D100089E00E94DF0060E08DE00E94DF0061E06A
:101D20008AE00E94DF000E94A90485E893E00E94F7
:101D30005D0564E973E089EE94E00E9441066091DC
:101D4000D9047091DA048091DB049091DC040E9444
:101D50006C0582E893E00E945D056EE973E089EE10
:101D600094E00E9441068091D6049091D7040E948D
:101D700044050E94A90481EB93E00E945D0565E89B
:101D800073E0CE0101960E94B108CE0101960E9437
:101D90004306CE0101960E94C20867E773E089EE10
:101DA00094E00E944106C701B6010E946C0582E8DA
:101DB00093E00E945D050E94830668EB7BE080E073
:101DC00090E00E946E0160E08AE00E94DF001092C5
:101DD000DE040E94DD0380910201811110C0809118
:101DE000010181110CC080910001811108C0109285
:101DF000D5041092CC041092CB041092CA048091A6
:101E0000DF0481118BC08091DE04811187C0809135
:101E1000DD04811183C020E030E046E952E46091A6
:101E2000D9047091DA048091DB049091DC040E9463
:101E3000DE1018160CF45CC08091D804811158C0D3
:101E40001093D8046BE774E0CE0101960E94B108AC
:101E5000CE0101960E94CA08CE0101960E94C208D6
:101E60000E94AE070E942E0761E081E10E94DF0020
:101E70000E94DD0380E00E94E50368E874E085EDE0
:101E800095E00E94410681E00E94E5036BE774E063
:101E900085ED95E00E9441060E94A90486E494E045
:101EA0000E945D050E94A90486E994E00E945D05F8
:101EB0006EE973E089EE94E00E9441068091D604B9
:101EC0009091D7040E94440589EA94E00E945D0540
:101ED0008CE694E00E945D058BE292E00E945D0535
:101EE00068EB7BE080E090E00E946E010E94DD03E1
:101EF00020E030E046E952E46091D9047091DA04C0
:101F00008091DB049091DC040E944E13181634F487
:101F10001092D80460E081E10E94DF000E948306F5
:101F20006CE271E080E090E00E946E01A114B104C7
:101F300009F45ECC0E941702882309F459CC0E9450
:101F4000000056CC20E030E040EC50E4C701B60180
:101F50000E944E1318160CF053C020E030E040E40D
:101F600051E4C701B6010E94DE1018160CF448C0F7
:101F70001092DF048091C4049091C504019690935F
:101F8000C5048093C40461E089E00E94DF0061E041
:101F90008DE00E94DF000E94DD0380E00E94E503E7
:101FA00067EC73E085ED95E00E94410667EC73E015
:101FB000CE0101960E94B108CE0101960E9443060F
:101FC000CE0101960E94C20881E00E94E50363ED04
:101FD00073E085ED95E00E9441068EED93E00E944E
:101FE0005D0568EB7BE080E090E00E946E0160E0C0
:101FF00089E00E94DF0060E08DE00E94DF00E9CE12
:1020000020E030E040E451E4C701B6010E944E13E5
:10201000181674F51092DF048091C2049091C304E5
:1020200001969093C3048093C20461E089E00E940A
:10203000DF0061E08DE00E94DF000E94DD0380E0B0
:102040000E94E5036CEF73E085ED95E00E94410688
:1020500081E00E94E50365E074E085ED95E00E9473
:10206000410683E194E00E945D0561E374E0EFCDF9
:102070000E94A101C090CD04D090CE04E090CF0486
:10208000F090D0046C197D098E099F096133754762
:102090008105910508F49FCE1092DF0460E089E08D
:1020A0000E94DF0060E08DE00E94DF001093DD04FD
:1020B0008091C0049091C10401969093C1048093D3
:1020C000C0046AE374E0CE0101960E94B108CE011B
:1020D00001960E94CA08CE0101960E94C2080E9481
:1020E000AE070E942E070E94830668EB7BE080E02B
:1020F00090E00E946E011092DD040E94DD030E94B8
:10210000A90486E494E00E945D050E94A90480E68B
:1021100094E00E945D058CE694E00E945D058BE2F0
:1021200092E00E945D056AE374E0CE0101960E9490
:10213000B108CE0101960E944306CE0101960E948D
:10214000C20849CECF93DF93C2ECD5E02697CE01EB
:102150000E94C20885E0C638D807C1F782EC95E036
:10216000DF91CF910C94C208BB27FB015527AA270A
:10217000880F991FAA1FA41710F0A41B8395505114
:10218000B9F7A05DAA3308F0A95DA193009779F78C
:10219000B111B1931192CB010C94CE10DC01FC0172
:1021A000672F71917723E1F7329704C07C916D938B
:1021B00070836291AE17BF07C8F308950E94201183
:1021C00008F481E00895E89409C097FB3EF49095E7
:1021D0008095709561957F4F8F4F9F4F9923A9F000
:1021E000F92F96E9BB279395F6958795779567958F
:1021F000B795F111F8CFFAF4BB0F11F460FF1BC0D3
:102200006F5F7F4F8F4F9F4F16C0882311F096E965
:1022100011C0772321F09EE8872F762F05C0662313
:1022200071F096E8862F70E060E02AF09A95660FCC
:10223000771F881FDAF7880F9695879597F9089585
:10224000990F0008550FAA0BE0E8FEEF16161706C7
:10225000E807F907C0F012161306E407F50798F02F
:10226000621B730B840B950B39F40A2661F0232B48
:10227000242B252B21F408950A2609F4A140A695C4
:102280008FEF811D811D08950E9457110C94C81174
:102290000E94BA1138F00E94C11120F0952311F06C
:1022A0000C94B1110C94B71111240C94FC110E94E0
:1022B000D91170F3959FC1F3950F50E0551F629FA0
:1022C000F001729FBB27F00DB11D639FAA27F00D8F
:1022D000B11DAA1F649F6627B00DA11D661F829FB6
:1022E0002227B00DA11D621F739FB00DA11D621F9B
:1022F000839FA00D611D221F749F3327A00D611DB8
:10230000231F849F600D211D822F762F6A2F112499
:102310009F5750409AF0F1F088234AF0EE0FFF1FCC
:10232000BB1F661F771F881F91505040A9F79E3F23
:10233000510580F00C94B1110C94FC115F3FE4F353
:10234000983ED4F3869577956795B795F795E79579
:102350009F5FC1F7FE2B880F911D9695879597F982
:10236000089597F99F6780E870E060E008959FEF17
:1023700080EC089500240A9416161706180609061C
:10238000089500240A9412161306140605060895EB
:10239000092E0394000C11F4882352F0BB0F40F473
:1023A000BF2B11F460FF04C06F5F7F4F8F4F9F4FB3
:1023B000089557FD9058440F551F59F05F3F71F035
:1023C0004795880F97FB991F61F09F3F79F087959C
:1023D0000895121613061406551FF2CF4695F1DF25
:1023E00008C0161617061806991FF1CF86957105B5
:1023F000610508940895E894BB2766277727CB01E9
:1024000097F908952F923F924F925F926F927F9229
:102410008F929F92AF92BF92CF92DF92EF92FF92F4
:102420000F931F93CF93DF93CDB7DEB7CA1BDB0BA0
:102430000FB6F894DEBF0FBECDBF09942A88398845
:1024400048885F846E847D848C849B84AA84B9844C
:10245000C884DF80EE80FD800C811B81AA81B98158
:10246000CE0FD11D0FB6F894DEBF0FBECDBFED016C
:1024700008955058BB27AA270E9451120C94C811E6
:102480000E94BA1138F00E94C11120F039F49F3F28
:1024900019F426F40C94B7110EF4E095E7FB0C94B4
:1024A000B111E92F0E94D91158F3BA1762077307C7
:1024B0008407950720F079F4A6F50C94FB110EF42F
:1024C000E0950B2EBA2FA02D0B01B90190010C0144
:1024D000CA01A0011124FF27591B99F0593F50F45C
:1024E000503E68F11A16F040A22F232F342F4427B4
:1024F000585FF3CF469537952795A795F0405395AC
:10250000C9F77EF41F16BA0B620B730B840BBAF07B
:102510009150A1F0FF0FBB1F661F771F881FC2F7E6
:102520000EC0BA0F621F731F841F48F487957795FA
:102530006795B795F7959E3F08F0B0CF9395880FB4
:1025400008F09927EE0F9795879508950E94BA1283
:102550000C94C8110E94C11158F00E94BA1140F0A9
:1025600029F45F3F29F00C94B11151110C94FC1126
:102570000C94B7110E94D91168F39923B1F3552334
:1025800091F3951B550BBB27AA2762177307840786
:1025900038F09F5F5F4F220F331F441FAA1FA9F31C
:1025A00035D00E2E3AF0E0E832D091505040E6950A
:1025B000001CCAF72BD0FE2F29D0660F771F881F6B
:1025C000BB1F261737074807AB07B0E809F0BB0B5E
:1025D000802DBF01FF2793585F4F3AF09E3F510572
:1025E00078F00C94B1110C94FC115F3FE4F3983E29
:1025F000D4F3869577956795B795F7959F5FC9F75B
:10260000880F911D9695879597F90895E1E0660FDB
:10261000771F881FBB1F621773078407BA0720F054
:10262000621B730B840BBA0BEE1F88F7E0950895BD
:102630000E941F136894B1110C94FC1108950E941C
:10264000E11188F09F5798F0B92F9927B751B0F052
:10265000E1F0660F771F881F991F1AF0BA95C9F726
:1026600014C0B13091F00E94FB11B1E008950C94B8
:10267000FB11672F782F8827B85F39F0B93FCCF36B
:10268000869577956795B395D9F73EF490958095A3
:10269000709561957F4F8F4F9F4F08950E94201135
:1026A00008F48FEF08950E942011880B990B08956C
:1026B000A1E21A2EAA1BBB1BFD010DC0AA1FBB1F46
:1026C000EE1FFF1FA217B307E407F50720F0A21BB8
:1026D000B30BE40BF50B661F771F881F991F1A9425
:1026E00069F760957095809590959B01AC01BD014F
:1026F000CF010895EE0FFF1F0590F491E02D09948E
:102700000F931F93CF93DF938230910510F482E0F3
:1027100090E0E091EF05F091F00530E020E0B0E0CE
:10272000A0E0309799F42115310509F44AC0281B1F
:10273000390B24303105D8F58A819B8161157105EB
:1027400089F1FB0193838283FE0111C04081518195
:102750000281138148175907E0F04817590799F487
:10276000109761F012960C93129713961C93329661
:10277000CF01DF91CF911F910F9108950093EF0545
:102780001093F005F4CF2115310551F0421753078E
:1027900038F0A901DB019A01BD01DF01F801C1CFC9
:1027A000EF01F9CF9093F0058093EF05CDCFFE01B7
:1027B000E20FF31F819391932250310939832883CB
:1027C000D7CF2091ED053091EE05232B41F42091D8
:1027D0000501309106013093EE052093ED0520911F
:1027E0000301309104012115310541F42DB73EB7A5
:1027F0004091070150910801241B350BE091ED0534
:10280000F091EE05E217F307A0F42E1B3F0B2817FB
:10281000390778F0AC014E5F5F4F2417350748F059
:102820004E0F5F1F5093EE054093ED0581939193FA
:102830009FCFF0E0E0E09CCFCF93DF930097E9F0EB
:10284000FC01329713821282A091EF05B091F0053E
:10285000ED0130E020E01097A1F420813181820F5A
:10286000931F2091ED053091EE052817390709F0E7
:1028700061C0F093EE05E093ED05DF91CF910895EF
:10288000EA01CE17DF07E8F54A815B819E01411519
:102890005105B1F7E901FB83EA8349915991C40FCE
:1028A000D51FEC17FD0761F4808191810296840F9A
:1028B000951FE90199838883828193819B838A8311
:1028C000F0E0E0E012968D919C9113970097B9F596
:1028D0002D913C911197CD010296820F931F20916B
:1028E000ED053091EE052817390739F6309751F587
:1028F0001092F0051092EF05B093EE05A093ED0550
:10290000BCCFD383C28340815181840F951FC817E8
:10291000D90761F44E5F5F4F88819981480F591F35
:10292000518340838A819B81938382832115310562
:1029300009F0B0CFF093F005E093EF059ECFFD01D5
:10294000DC01C0CF13821282D7CFB0E0A0E0EBEA67
:10295000F4E10C9404128C01009751F4CB010E9415
:1029600080138C01C801CDB7DEB7E0E10C942012D2
:10297000FC01E60FF71F9C0122503109E217F30713
:1029800008F49DC0D901CD91DC911197C617D707E6
:1029900098F0C530D10530F3CE010497861797071C
:1029A00008F3C61BD70B2297C193D1936D937C93E9
:1029B000CF010E941C14D6CF5B01AC1ABD0A4C019A
:1029C0008C0E9D1EA091EF05B091F005512C412C6D
:1029D000F12CE12C109731F58091ED059091EE05E9
:1029E0008815990509F05CC04616570608F058C0CE
:1029F0008091030190910401009741F48DB79EB737
:102A00004091070150910801841B950BE817F907C5
:102A100008F055C0F093EE05E093ED05F9017183E0
:102A20006083A0CF8D919C91119712966C90129714
:102A300013967C901397A815B90559F56C0142E0DF
:102A4000C40ED11CCA14DB0420F1AC014A195B0985
:102A5000DA011296159780F0628273825183408367
:102A6000D9016D937C93E114F10471F0D7011396B1
:102A7000FC93EE93129776CF22968C0F9D1FF9014F
:102A800091838083F301EFCFF093F005E093EF059E
:102A900069CF4816590608F42C017D01D3019ACF5D
:102AA000CB010E9480137C01009749F0AE01B80170
:102AB0000E946215C8010E941C14870153CF10E0C8
:102AC00000E050CFFB01DC0102C001900D924150AB
:102AD0005040D8F70895FB01DC0101900D920020D1
:102AE000E1F7089510E0C2E6D0E004C0FE010E94C4
:0E2AF0007A132196C336D107C9F7F894FFCFA9
:102AFE00323B080000F1058000000000004D02ADE1
:102B0E0001DA019A020B02E901FD0100000000BA90
:102B1E0002A609000000009404AD01BC02BB020D28
:102B2E000A006E616E00696E66006F766600300098
:102B3E0052656D696E6465720054616B65204D65FA
:102B4E00646963696E650052656D696E64657220B5
:102B5E000020202020202020202020202020202087
:102B6E00200050696C6C733A003D3D3D3D3D3D3D4E
:102B7E003D3D3D204441494C59205245504F525401
:102B8E00203D3D3D3D3D3D3D3D3D3D00436F72721F
:102B9E0065637420446F7365202020203A20005511
:102BAE006E64657220446F73652020202020203AC9
:102BBE002000446F75626C6520446F736520202081
:102BCE0020203A2000546F6F204D616E792050699D
:102BDE006C6C7320203A20004D6973736564204439
:102BEE006F736520202020203A200052656D6169A8
:102BFE006E696E672050696C6C733A200041646890
:102C0E006572656E63652020202020203A200030FA
:102C1E0025003D3D3D3D3D3D3D3D3D3D3D3D3D3D2B
:102C2E003D3D3D3D3D3D3D3D3D3D3D3D3D3D3D3DC6
:102C3E003D3D3D3D003D3D3D3D3D204D45444943DF
:102C4E004154494F4E20484953544F5259203D3D0F
:102C5E003D3D3D002E2000202D2000536D617274ED
:102C6E00204D656420426F7800496E697469616C0D
:102C7E00697A696E670020534D415254204D454488
:102C8E004943494E4520424F5820535441525445D2
:102C9E0044002047534D2053494D554C4154494F04
:102CAE004E205245414459002D2D2D2D2D2D2D2DCB
:102CBE002D2D2D2D2D2D2D2D2D2D2D2D2D2D2D2D36
:102CCE002D2D2D2D2D2D2D2D004576656E74204C20
:102CDE006F672053746172746564005B30393A30EB
:102CEE00305D202052656D696E646572205374618B
:102CFE0072746564005B31323A30305D202052656B
:102D0E006D696E6465722053746172746564005BE4
:102D1E0031363A30305D202052656D696E646572D1
:102D2E002053746172746564005B32303A30305DEA
:102D3E0020202052656D696E646572205374617235
:102D4E007465640054616B652046756C6C20446F2D
:102D5E007365005741524E494E473A20556E646591
:102D6E007220446F73650052656D6F766564203A0C
:102D7E0020002067004D65646963696E65205461AB
:102D8E006B656E00576569676874203A200052655E
:102D9E006D61696E696E672050696C6C73203A20A4
:102DAE0000446F736520537461747573203A204329
:102DBE006F727265637400446F75626C6520446F48
:102DCE007365004265204361726566756C005741FC
:102DDE00524E494E473A20446F75626C6520646FBF
:102DEE00736520646574656374656400546F6F2049
:102DFE004D616E790050696C6C732052656D6F7603
:102E0E00656400414C4552542120546F6F206D6112
:102E1E006E792070696C6C732072656D6F76656467
:102E2E00004F766572646F7365004D6973736564E8
:102E3E0020446F7365003D3D3D3D3D3D3D3D3D3D77
:102E4E002047534D203D3D3D3D3D3D3D3D3D3D00EB
:102E5E00446F7365204D697373656400534D532041
:102E6E00416C6572742053656E74004D65646963C0
:102E7E00696E65204C6F7700526566696C6C204EEA
:102E8E006565646564004D65646963696E652053AC
:102E9E00746F636B204C6F7700526566696C6C20A3
:0A2EAE0052657175697265640000D9
:00000001FF
